011000015O0110000150020802000000000FEDERAL RESERVE BANK                1000 PEACHTREE ST N.E.              ATLANTA             GA303094470866234568111     
011000028O0110000151072007000000000STATE STREET BANK AND TRUST COMPANY 1776 HERITAGE DR (JAB 3S3)          NORTH QUINCY        MA021712101617664240011     
011000138O0110000151033106000000000BANK OF AMERICA, N.A.               PO BOX 27025                        RICHMOND            VA232617025800446013511     
011000206O0110000151072505000000000BANK OF AMERICA N.A                 PO BOX 27025                        RICHMOND            VA232617025800446013511     
011000390O0110000151072505000000000BANK OF AMERICA N.A                 PO BOX 27025                        RICHMOND            VA232617025800446013511     
011000536O0110000151052402000000000FEDERAL HOME LOAN BK BOST           111 HUNTINGTON AVE                  BOSTON              MA021990000617292979011     
011001234O0110000151111306000000000MELLON TRUST OF NEW ENGLAND, N.A.   SUITE 960                           PITTSBURGH          PA152620001412236333811     
011001276O0110000151071206000000000BOSTON BANK OF COMMERCE             3683 CRENSHAW BL                    LOS ANGELES         CA900160000877663864811     
011001331O0110000151021501000000000CITIZENS BANK                       1 CITIZENS DRIVE                    RIVERSIDE           RI029150000401456752311     
011001438O0110000151070204000000000INVESTORS BANK AND TRUST            200 CLARENDON STREET                BOSTON              MA021160000617937664811     
011001726O0110000151042707000000000THE FIRST NATIONAL BANK OF IPSWICH  31 MARKET ST                        IPSWICH             MA019380000978356370011     
011001742O0110000151072505000000000BANK OF AMERICA, N.A.               PO BOX 27025                        RICHMOND            VA232617025800446013511     
011001881O0110000151062905000000000FIDUCIARY TRUST CO                  175 FEDERAL STREET                  BOSTON              MA021102289617292676311     
011001962O1210003742071807122203950CATHAY BANK                         4128 TEMPLE CITY BLVD R5-14         ROSEMEAD            CA917700000626582733811     
011002343O0110000151071806000000000BOSTON PRIVATE BK + TR CO           ATTN: ACH ORPERATIONS               BOSTON              MA021094603617912423111     
011002550O0110000151110101000000000WAINWRIGHT BANK + TRUST CO          63 FRANKLIN STREET                  BOSTON              MA021101203617478400011     
011002628O0110000151080103000000000CAPITAL CROSSING BANK               101 SUMMER STREET                   BOSTON              MA021100000617880100011     
011002725O0110000151112101000000000MERCANTILE BK & TR CO               61 BROOKLINE AVENUE                 BOSTON              MA022150000617867883611     
011002864O0110000151070505000000000CITIZENS BANK                       1 CITIZENS DRIVE                    RIVERSIDE           RI029150000401456752311     
011002877O0110000151051206000000000UNITED COMMERCIAL BANK              711 VAN NESS AVE #580               SAN FRANCISCO       CA941020000800288389911     
011075150O0110000151101802000000000SOVEREIGN BANK                      1125 BERKSHIRE BLVD                 WYOMISSING          PA196100000877768226511     
011075202O0110000151101802000000000SOVEREIGN BANK                      1125 BERKSHIRE BLVD.                WYOMISSING          PA196100000877768226511     
011099071O0110000150093002000000000FRB BOSTON HUMAN RESOURCES          1000 PEACHTREE STREET NE            ATLANTA             GA303090000866234568111     
011099660O0110000150093002000000000FRB BOSTON ACCOUNTING DEPT.         1000 PEACHTREE STREET NE            ATLANTA             GA303090000866234568111     
011100012O0110000151072805000000000BANK OF AMERICA N.A.                PO BOX 27025                        RICHMOND            VA232617025800446013511     
011100106O0110000151081103000000000WACHOVIA BANK  N.A.                 401 LINDEN STREET                   WINSTON-SALEM       NC271500000800841889311     
011100805O0110000151072805000000000BANK OF AMERICA N.A                 P.O. BOX 27025                      RICHMOND            VA232617025800446013511     
011100892O0110000151071306000000000BANK OF AMERICA N.A.                P.O. BOX 27025                      RICHMOND            VA232617025800446013511     
011100915O0110000151072805000000000BANK OF AMERICA N.A.                P.O. BOX 27025                      RICHMOND            VA232617025800446013511     
011101024O0110000151081103000000000WACHOVIA BANK  N.A.                 401 LINDEN STREET                   WINSTON-SALEM       NC271500000800841889311     
011101244O0110000151051906000000000TD BANKNORTH, N.A.                  140 MILL ST.                        LEWISTON            ME042400000207753591511     
011101367O0110000151051906000000000TD BANKNORTH, N.A.                  140 MILL ST                         LEWISTON            ME042401377201753591511     
011101529O0110000151072805000000000BANK OF AMERICA N.A.                P.O. BOX 27025                      RICHMOND            VA232617025800446013511     
011101613O0110000151062504000000000WEBSTER BANK                        436 SLATER RD NB190                 NEW BRITIAN         CT060530000800325242411     
011101752O0110000151072105000000000BANK OF AMERICA N.A.                PO BOX 27025                        RICHMOND            VA232617025800446013511     
011102094O0110000151081103000000000WACHOVIA BANK  N.A.                 401 LINDEN STREET                   WINSTON-SALEM       NC271500000800841889311     
011102133O0110000151062904000000000CITIZENS NATIONAL BANK              182 MAIN ST                         PUTMAN              CT062601933860928792111     
011102353O0110000151110101000000000FIRST NAT BANK OF SUFFIELD          30 BRIDGE STREET                    SUFFIELD            CT060780000860668395011     
011102502O01100001510806030000000001ST NATL BANK LITCHFIELD            P. O. BOX 578                       LITCHFIELD          CT067590578860567267211     
011102612O0110000151082206000000000SALISBURY BANK & TRUST CO           PO BOX 757                          CANAAN              CT060180000860435980111     
011102638O0110000151011101000000000NATIONAL IRON BANK                  195 MAIN STREET                     SALISBURY           CT060680000860435258111     
011102667O0110000152071406011102612SALISBURY BANK & TRUST CO.          94 MAIN ST                          CANAAN              CT060180000860435980111     
011103022O0110000151081103000000000WACHOVIA BANK  N.A.                 401 LINDEN STREET                   WINSTON-SALEM       NC271500000800841889311     
011103080O0110000151072105000000000BANK OF AMERICA N.A.                PO BOX 27025                        RICHMOND            VA232617025800446013511     
011103093O0110000151052305000000000TD BANKNORTH, N.A.-CT               140 MILL STREET                     LEWISTON            ME042401377207753591511     
011103129O0110000151051302000000000JEWETT CITY SAVINGS BANK            135 DARLING DR                      AVON                CT060014218860376444411     
011103284O0110000151081103000000000WACHOVIA BANK  N.A.                 401 LINDEN STREET                   WINSTON-SALEM       NC271500000800841889311     
011104047O0110000151072505000000000BANK OF AMERICA N.A.                PO BOX 27025                        RICHMOND            VA232617025800446013511     
011104050B0110000151062504000000000WEBSTER BANK                        436 SLATER RD NB190                 NEW BRITIAN         CT060530000800325242411     
011104063O0110000152121197211170130NEW HAVEN SAVINGS BANK              195 CHURCH ST                       NEW HAVEN           CT065100000203789262911     
011104102O0110000151081103000000000WACHOVIA BANK  N.A.                 401 LINDEN STREET                   WINSTON-SALEM       NC271500000800841889311     
011104115O0110000151081103000000000WACHOVIA BANK  N.A.                 401 LINDEN STREET                   WINSTON-SALEM       NC271500000800841889311     
011104131O0110000151071206000000000PEOPLES BANK                        850 MAIN STREET                     BRIDGEPORT          CT066010000203338679411     
011104160O0110000151051906000000000TD BANKNORTH, N.A.                  140 MILL ST                         LEWISTON            ME042401377207753591511     
011104173B0110000151011296000000000THE NEW HAVEN SAVINGS BANK          195 CHURCH ST                       NEW HAVEN           CT065100000203789262911     
011104199O0110000151071206000000000PEOPLES BANK                        850 MAIN STREET                     BRIDGEPORT          CT066010000203338679411     
011104209O0110000151062504000000000WEBSTER BANK                        436 SLATER RD NB190                 NEW BRITIAN         CT060530000800325242411     
011104283O0110000152040398211174181SAVINGS INSTITUTE                   803 MAIN ST                         WILLAMANTIC         CT062260000860423458111     
011104322O0110000152070705211170101WEBSTER BANK N.A                    436 SLATER ROAD                     NEW BRITAIN         CT060530000860314333711     
011104335O0110000151120604000000000PRIME BANK                          7 OLD TAVERN ROAD                   ORANGE              CT064770696203799129911     
011104351O0110000151050802000000000SIMSBURY BANK & TRUST               760 HOPEMEADOW STREET               SIMSBURY            CT060700000860651209711     
011110552O0110000151091499000000000CITIZENS BANK                       1 CITIZENS DRIVE                    RIVERSIDE           RI029153000401456752311     
011110617O0110000151011707000000000BANKERS' BANK NORTHEAST             300 WINDING BROOK DR                GLASTONBURY         CT060330000860657226511     
011110620O0110000151082499000000000CASTLE BANK & TRUST CO.             100 HANOVER STREET                  MERIDEN             CT064510000203639886611     
011110633O0110000151070705000000000VALLEY BANK                         FOUR RIVERSIDE AVE                  BRISTOL             CT060100000860582886811     
011110646O0110000151070605000000000THE APPLE VALLEY BANK & TRUST CO.   286 MAPLE AVENUE                    CHESHIRE            CT064100000203271126811     
011110659O0110000151071206000000000THE BANK OF SOUTHERN CONNECTICUT    215 CHURCH STREET                   NEW HAVEN           CT065100000203786864411     
011110675O0110000151111003000000000WEBSTER BANK                        132 GRAND ST                        WATERBURY           CT067021909203573494411     
011110688O0110000151073103000000000CONNECTICUT RIVER COMM. BANK        1190 SILAS DEANE HIGHWAY            WETHERSFIELD        CT061090000860513109911     
011110701O0110000151081506000000000WEBSTER BANK N.A.                   145 BANK ST                         WATERBURY           CT067020000860614576311     
011175212O0110000151071806000000000INSURBANC                           10 EXECUTIVE DRIVE                  FARMINGTON          CT060320000860674230411     
011175319O0110000151120706000000000ROCKVILLE BANK                      25 PARK ST                          ROCKVILLE           CT060660000860291363211     
011200022O0110000151082103000000000KEY BANK NATIONAL ASSOCIATION       OH 01-51-0640                       BROOKLYN            OH441440000800304985611     
011200035O0110000152082103011200608KEY BANK NATIONAL ASSOCIATION       OH 01-51-0640                       BROOKLYN            OH441440000800304985611     
011200051O0110000151072805000000000BANK OF AMERICA N.A.                PO BOX 27025                        RICHMOND            VA232617025800446013511     
011200365O0110000151033106000000000BANK OF AMERICA, N.A.               PO BOX 27025                        RICHMOND            VA232617025800446013511     
011200475O0110000151071707000000000PEPPERELL BANK AND TRUST COMPANY    163 MAIN ST                         BIDDEFORD           ME040052505207284412111     
011200585O0110000151111901000000000DAMARISCOTTA BK&TR CO               P. O. BOX 999                       DAMARISCOTTA        ME045430999207563812111     
011200608O0110000151082103000000000KEY BANK NATIONAL ASSOCIATION       OH 01-51-0640                       BROOKLYN            OH441440000800304985611     
011201115O0110000151110901000000000BORDER TRUST COMPANY                P.O. BOX 220                        SOUTH CHINA         ME043580000207445486811     
011201306O0110000152100306011201458CAMDEN NATIONAL BANK                245 COMMERCIAL STREET               ROCKPORT            ME048560000800860882111     
011201335O0110000152062304211274450PEOPLES HERITAGE BANK               140 MILL STREET                     LEWISTON            ME042401377207753591511     
011201380O0110000151080403000000000UNION TRUST CO ELLSWORTH            66 MAIN ST                          ELLSWORTH           ME046051917207667250411     
011201403O0110000151071406000000000NORTHEAST BANK, FSB                 500 CANAL ST                        LEWISTON            ME042400000207786324511     
011201432O0110000151080603000000000OCEAN NAT BK KENNEBUNK              P.O. BOX 820                        BURLINGTON          VT054020000802660127311     
011201458O0110000151091003000000000CAMDEN NATIONAL BANK                245 COMMERCIAL STREET               ROCKPORT            ME048560000800860882111     
011201490O0110000152011607211272465GARDINER SVGS INSTITUTION FSB       190 WATER ST                        GARDINER            ME043450190207582555011     
011201500O0110000151072005000000000MAINE BANK AND TRUST CO             PO BOX 820                          BURLINGTON          VT054020000207828300011     
011201526O0110000151061107000000000MERRILL MERCHANTS BANK              359 PERRY RD                        BANGOR              ME044010000802660127311     
011201539O0110000151071306000000000BANK OF AMERICA N.A.                PO BOX 27025                        RICHMOND            VA232617025800446013511     
011201759O0110000151080405000000000BAR HARBOR BANK & TRUST             P. O. BOX 1089                      ELLSWORTH           ME046051089207288331411     
011201762O0110000151042205000000000THE FIRST, N.A.                     7 BRISTOL ROAD                      DAMARISCOTTA        ME045430000207563319511     
011201830O0110000151042205000000000THE FIRST, N.A.                     7 BRISTOL ROAD                      DAMARISCOTTA        ME045430000207563319511     
011201995O0110000151071306000000000ANDROSCOGGIN SAVINGS BANK           30 LISBON STREET                    LEWISTON            ME042407116207784916411     
011202392O0110000151112806000000000KATAHDIN TRUST COMPANY              P. O. BOX 36                        HOULTON             ME047300000207521045511     
011202907O0110000151062105000000000RIVERGREEN BANK                     P.O. BOX 1130                       KENNEBUNK           ME040870000207985922211     
011275251O0110000151070207000000000BANGOR SAVINGS BK                   19 MAINE AVE                        BANGOR              ME044010000207262497811     
011275303O0110000151071707000000000GORHAM SAVINGS BANK                 10 WENTWORTH DR                     GORHAM              ME040380000207222143011     
011300142O0110000151071106000000000COMMERCE BANK & TRUST CO            386 MAIN ST                         WORCHESTER          MA016080000508797692311     
011300595O0110000151071305000000000CAMBRIDGE TRUST COMPANY             10 FAWCETT ST.                      CAMBRIDGE           MA021383809617441156011     
011300605O0110000151072805000000000BANK OF AMERICA N.A.                P.O. BOX 27025                      RICHMOND            VA232617025800446013511     
011301073O0110000151021501000000000CITIZENS BANK                       1 CITIZENS DRIVE                    RIVERSIDE           RI029150000401456752311     
011301390O0110000151071607000000000CENTURY BANK & TRUST CO             400 MYSTIC AVE                      MEDFORD             MA021550000781393409011     
011301536O0110000151071105000000000EASTERN BANK                        195 MARKET STREET                   LYNN                MA019010000781598789711     
011301604O0110000151071105000000000EASTERN BANK                        195 MARKET STREET                   LYNN                MA019010000781598789711     
011301646O0110000151080105000000000BANK OF AMERICA N.A.                PO BOX 27025                        RICHMOND            VA232617025800446013511     
011301798O0110000151071305000000000EASTERN BANK                        195 MARKET ST                       LYNN                MA019010000781598789711     
011301947O0110000152062304211370545SAFETY FUND NATL BANK               140 MILL STREET                     LEWISTON            ME042401377207753591511     
011301992O0110000151070204000000000LUZO COMMUNITY BANK                 P.O. BOX 41149                      NEW BEDFORD         MA027400000508997455511     
011302030O0110000151080105000000000BANK OF AMERICA N.A.                PO BOX 27025                        RICHMOND            VA232617025800446013511     
011302111O0110000151122900000000000CITIZENS BANK                       1 CITIZENS DRIVE                    RIVERSIDE           RI029150000401456752311     
011302221O0110000151021105000000000BANKNORTH NA (BOSTON FEDERAL SVG)   140 MILL ST                         LEWISTON            ME042400000800462366611     
011302234O0110000152080503211371722DEDHAM INSTITUTION FOR SAVINGS      55 ELM ST                           DEDHAM              MA020260000781762850011     
011302292O0110000151062304000000000BANKNORTH, NA                       140 MILL STREET                     LEWISTON            ME042401377207753591511     
011302357O0110000151080105000000000BANK OF AMERICA N.A.                PO BOX 27025                        RICHMOND            VA232617025800446013511     
011302438O0110000151080105000000000BANK OF AMERICA N.A.                PO BOX 27025                        RICHMOND            VA232617025800446013511     
011302519O0110000151071105000000000EASTERN BANK                        195 MARKET STREET                   LYNN                MA019010000781598789711     
011302522O0110000151021501000000000CITIZENS BANK                       1 CITIZENS DRIVE                    RIVERSIDE           RI029150000401456752311     
011302603O0110000151062105000000000NORTHMARK BANK                      89 TURNPIKE ST                      NORTH ANDOVER       MA018450000978686910011     
011302616O0110000151080603000000000FLAGSHIP BANK AND TRUST CO          P.O. BOX 820                        BURLINGTON          VT054020000802660127311     
011302742O0110000151112601000000000ENTERPRISE BANK & TRUST CO.         P.O. BOX 908                        LOWELL              MA018530908978656556411     
011302768O0110000151011498000000000BEVERLY NATIONAL BANK               240 CABOT ST                        BEVERLY             MA019154523978922210711     
011302920O0110000151111306000000000MELLON TRUST OF NEW ENGLAND, N.A.   SUITE 960                           PITTSBURGH          PA152620001412236333811     
011302933O0110000151062304000000000BANKNORTH, N.A                      140 MILL STREET                     LEWISTON            ME042401377207753591511     
011303071O0110000151020599000000000CITIZENS BANK                       1 CITIZENS DRIVE                    RIVERSIDE           RI029150000401456752311     
011303084B0110000151111497000000000CAMBRIDGE SAVINGS BANK              1374 MASS AVE                       CAMBRIDGE           MA021380000617       11     
011303097O0110000151071707000000000NORTHERN BANK & TRUST CO            215 LEXINGTON STREET                WOBURN              MA018015005781937540011     
011303110O0110000152071105011301798EASTERN BANK                        195 MARKET STREET                   LYNN                MA019010000781598789711     
011303123O0110000151012604000000000BANKNORTH                           140 MILL ST                         LEWISTON            ME042400000800462366611     
011303327O0110000151112301000000000MILFORD NATL BK&TR CO               300 E. MAIN STREET                  MILFORD             MA017570228508634410011     
011303864O0110000151021501000000000CITIZENS BANK                       1 CITIZENS DRIVE                    RIVERSIDE           RI029150000401456752311     
011304232O0110000152080103011304478ROCKLAND TRUST CO.                  288 UNION STREET                    ROCKLAND            MA023700000508732341911     
011304287O0110000151021501000000000CITIZENS BANK                       1 CITIZENS DRIVE                    RIVERSIDE           RI029150000401456752311     
011304300O0110000151080603000000000NATL GRAND BK MARBLEHEAD            P O BOX 4                           MARBLEHEAD          MA019450004781631600011     
011304478O0110000151070506000000000ROCKLAND TRUST COMPANY              8 RICHARDS ROAD                     PLYMOUTH            MA023600000508732341411     
011304517O0110000151121203000000000CITIZENS BANK                       1 CITIZENS DR                       RIVERSIDE           RI029150000401456752311     
011304711O01100001510717070000000001ST NATL BANK IPSWICH               31 MARKET ST                        IPSWICH             MA019380000978356370011     
011305202O0110000151070605000000000MILLBURY NATIONAL BANK              215 WORCESTER STREET                NORTH GRAFTON       MA015360000508865952111     
011305260O0110000151121503000000000ROCKPORT NATIONAL BANK              16 MAIN STREET                      ROCKPORT            MA019661513978546341111     
011305338O0110000151070604000000000BEN FRANKLIN SAVINGS BANK           221 MAIN STREET                     MILFORD             MA017570000508478844211     
011305684O0110000151110106000000000EDGARTOWN NATIONAL BANK             BOX 96                              EDGARTOWN           MA025390096508627115211     
011305749O0110000151062304000000000CAPE COD BK&TR CO                   140 MILL ST                         LEWISTON            ME042401377207753591511     
011305956O0110000151101504000000000SOVEREIGN BANK                      ONE COMPASS PLACE                   NEW BEDFORD         MA027400000877768226511     
011306492B0110000151071105000000000EASTERN BANK                        195 MARKET STREET                   LYNN                MA019010000781598789711     
011306829O0110000151021501000000000CITIZENS BANK                       1 CITIZENS DRIVE                    RIVERSIDE           RI029150000401456752311     
011306971O0110000151110901000000000SLADES FERRY TRUST CO               100 SLADES FERRY AVE                SOMERSET            MA027264201508675212111     
011307077O0110000151071807000000000EASTERN BANK                        195 MARKET STREET                   LYNN                MA019010000781598789711     
011307080O0110000151071805000000000SOUTH SHORE SAVINGS BANK            1584 MAIN STREET                    S. WEYMOUTH         MA021900000781682370111     
011307116O0110000151072205000000000COMMONWEALTH NATIONAL BANK          33 WALDO STREET                     WORCESTER           MA016080000508793836311     
011307129O0110000151062105000000000LEADER BANK , N.A.                  180 MASSACHUSETTS  AVE              ARLINGTON           MA024740000781646390011     
011307158O0110000151062905000000000STATE STREET BANK & TRUST           JAB 3W EFT SERVICES                 QUINCY              MA021710000617664240011     
011307161O0110000151071607000000000CENTURY BANK AND TRUST CO           400 MYSTIC AVENUE                   MEDFORD             MA021550000781393464111     
011307174O0110000151082806000000000BANK OF CAPE COD                    232 MAIN ST                         HYANNIS             MA026010000508568230511     
011307187O0110000151071307000000000NORTHMARK BANK                      PO BOX 825                          NORTH ANDOVER       MA018450000978686910011     
011375164O0110000151080403000000000BROOKLINE BANK                      P. O. BOX 470469                    BROOKLINE           MA024470469617730350011     
011375245O0110000151063004000000000SOVEREIGN BANK                      1125 BEKSHIRE BOULEVARD             WYOMISSING          PA196100000877768226511     
011375274O0110000151040306000000000PATRIOT COMMUNITY BANK              237 LEXINGTON STREET                WOBURN              MA018010000781935331811     
011392532O0110000151011601000000000TURNPIKE CREDIT UNION               668 SOUTH AVENUE                    WESTON              MA024931120781431515011     
011392626O0110000151020497000000000MORTON FEDERAL CREDIT UNION         88 WASHINGTON STREET                TAUNTON             MA027800000508828703611     
011392642O0110000152070105211382931WORKER'S CREDIT UNION               P.O. BOX 900                        FITCHBURG           MA014200900978345102111     
011400013O0110000151021301000000000CITIZENS BANK                       1 CITIZENS DRIVE                    RIVERSIDE           RI029150000401456752311     
011400039O0110000151021301000000000CITIZENS BANK                       1 CITIZENS DRIVE                    RIVERSIDE           RI029150000401456752311     
011400071O0110000151052305000000000TD BANKNORTH, NA, NH                140 MILL STREET                     LEWISTON            ME042401377207753591511     
011400149O0110000151091604000000000ST MARY'S BANK                      200 BEDFORD ST                      MANCHESTER          NH031010000603669460011     
011400479O0110000152062304011400071BANK OF NEW HAMPSHIRE               140 MILL STREET                     LEWISTON            ME042401377207753591511     
011400495O0110000151033106000000000BANK OF AMERICA, N.A.               PO BOX 27025                        RICHMOND            VA232617025800446013511     
011401096B0110000151062304000000000FAMILY BANK                         140 MILL STREET                     LEWISTON            ME042401377207753591511     
011401135O0310000402031704231372691SOVEREIGN BANK                      MAIL STOP CP-201                    LAWRENCE            MA018410000978689850011     
011401148O0110000151062304000000000FARMINGTON NATL & SVG BK            140 MILL STREET                     LEWISTON            ME042401377207753591511     
011401533O0110000151012301000000000CITIZENS BANK                       1 CITIZENS DRIVE                    RIVERSIDE           RI029150000401456752311     
011401685O0110000151031406000000000BANK OF AMERICA N.A.                PO BOX 27025                        RICHMOND            VA232617025800446013511     
011401850O0110000151041307000000000BANK OF NEW ENGLAND                 P.O. BOX 29                         SALEM               NH030790000603894570011     
011401876O0110000152052804011201432OCEAN NATIONAL                      P.O. BOX 820                        BURLINGTON          VT054020820802660127311     
011401928O0110000152072007211470225MERRIMACK COUNTY SVGS BANK          89 NORTH MAIN                       CONCORD             NH033019963603225279311     
011401931O0110000152052804011201432OCEAN NATIONAL                      P.O. BOX 820                        BURLINGTON          VT054020820802660127311     
011401957O0110000151062304000000000CENTER POINT BANK                   140 MILL STREET                     LEWISTON            ME042401377207753591511     
011401960O0110000151050702000000000COMMUNITY BANK AND TRUST CO         15 VARNEY ROAD                      WOLFEBORO           NH038940000603569840011     
011402008O0110000151082103000000000KEY BANK NATIONAL ASSOCIATION       OH 01-51-0640                       BROOKLYN            OH441440000800304985611     
011402024O0110000151071707000000000CENTRIX BANK & TRUST                2ND FLOOR                           BEDFORD             NH031100000603647444611     
011402053O0110000151112006000000000HAMPSHIRE FIRST BANK                80 CANAL ST                         MANCHESTER          NH031010000603623200711     
011475116O0110000152112904211370477ANDOVER BANK                        MAILSTOP-ME091-41                   LEWISTON            ME042401377207753591511     
011500010O0110000151033106000000000BANK OF AMERICA, N.A.               PO BOX 27025                        RICHMOND            VA232617025800446013511     
011500120O0110000151070505000000000CITIZENS BANK                       1 CITIZENS DR                       RIVERSIDE           RI029150000401282752311     
011500337O0110000151080305000000000BANK OF AMERICA N.A.                PO BOX 27025                        RICHMOND            CT232617025800446013511     
011500722O0110000151012301000000000CITIZENS BANK                       1 CITIZENS DRIVE                    RIVERSIDE           RI029150000401456752311     
011500858O0110000151110101000000000WASHINGTON TRUST COMPANY            2 CROSSWIND ROAD                    WESTERLY            RI028911827401348152411     
011500913O0110000151032698000000000CENTREVILLE SAVINGS  BANK           PO BOX 1009                         WEST WARWICK        RI028930909401821910011     
011501022O0110000151021401000000000CITIZENS BANK                       1 CITIZENS DRIVE                    RIVERSIDE           RI029150000401456752311     
011501035O0110000151080305000000000BANK OF AMERICA N.A.                PO BOX 27025                        RICHMOND            VA232617025800446013511     
011501077O0110000151080305000000000BANK OF AMERICA N.A.                PO BOX 27025                        RICHMOND            VA232617025800446013511     
011501093O0110000152111606211574642BANK OF NEWPORT                     12 TURNER ROAD                      MIDDLETOWN          RI028420000401846340011     
011501271O0110000152072904011500858THE WASHINGTON TRUST COMPANY        2 CROSSWINDS ROAD                   WESTERLY            RI028910000401348141711     
011501556O0110000151021501000000000CITIZENS BANK                       1 CITIZENS DRIVE                    RIVERSIDE           RI029150000401456752311     
011501598O0110000151072205000000000NEWPORT FEDERAL SAV. BANK           100 BELLEVUE AVE                    NEWPORT             RI028400810401847550011     
011501637O0110000151071307000000000WASHINGTON TRUST COMPANY            2 CROSSWIND ROAD                    WESTERLY            RI028911827401348152411     
011501682O0110000151070204000000000BANK RHODE ISLAND                   625 GEORGE WASHINGTON HIGHWAY       LINCILN             RI028650000401334622011     
011501695O0110000151092203000000000BANK RHODE ISLAND                   625 GEORGE WASHINGTON HWY           LINCOLN             RI028650000401334622011     
011501705O0110000151120301000000000FREEDOM NATIONAL BANK               584 PUTNAM PIKE                     GREENVILLE          RI028280000401949160011     
011501718O0110000151071206000000000INDEPENDENCE BANK                   1370 SOUTH COUNTY TRAIL             EAST GREENWICH      RI028180000401886460011     
011575236O0110000151111901000000000UNION FEDERAL SAVINGS BANK          1565 MINERAL SPRING AVENUE          N. PROVIDENCE       RI029040000401353890011     
011600020O0110000151082302000000000MERCHANTS BANK                      P. O. BOX 1009                      BURLINGTON          VT054020000802865198911     
011600033O0110000151052305000000000TD BANKNORTH, N.A.-VT               140 MILL STREET                     LEWISTON            ME042401377207753591511     
011600062O0110000151050802000000000CHITTENDEN TRUST COMPANY            2 BURLINGTON SQUARE                 BURLINGTON          VT054010000802660127311     
011600266O0110000151112904000000000GRANITE SAVINGS BK&TR CO            MAILSTOP-ME091-41                   LEWISTON            ME042401377207753591511     
011600392O0110000152062904011601100UNION BANK                          20 LOWER MAIN STREET                MORRISVILLE         VT056610667802888660011     
011600486O0110000152122402011600062CHITTENDEN TRUST COMPANY            2 BURLINGTON SQUARE                 BURLINGTON          VT054010000802660127311     
011600525O0110000151062304000000000BANKNORTH, NA                       140 MILL STREET                     LEWISTON            ME042401377207753591511     
011600567O0110000151110101000000000PEO TR CO ST ALBANS                 PO BOX 320                          ST. ALBANS          VT054780551802524219611     
011600570O0110000151062304000000000BANKNORTH, NA                       140 MILL STREET                     LEWISTON            ME042401377207753591511     
011600622O0110000152122402011600062CHITTENDEN BANK                     2 BURLINGTON SQUARE                 BURLINGTON          VT054010000802660127311     
011600648O0110000151072888000000000FIRST NATIONAL BK VERMONT           56 MAIN ST                          SPRINGFEILD         VT051562906802885451111     
011600774O0110000152062807211770200LAKE SUNAPEE BANK                   9 MAIN STREET                       NEWPORT             NH037730029603863577211     
011600790O0110000151062304000000000FIRST VERMONT BANK                  140 MILL STREET                     LEWISTON            ME042401377207753591511     
011600868O0110000151071306000000000LYNDONBANK                          48 ELM STREET                       LYNDONVILLE         VT058510000802427101011     
011600981O0110000151072888000000000BRADFORD NATIONAL BANK              BOX 393                             BRADFORD            VT050330393802222523111     
011601029O0110000151080103000000000COMMUNITY NATIONAL BANK             P. O. BOX 259                       DERBY               VT058290000802334791511     
011601074O0110000151050902000000000FACTORY POINT NATIONAL              4928 MAIN STREET                    MANCHESTER CTR      VT052550000802362242411     
011601087O0110000151071206000000000NATL BANK OF MIDDLEBURY             30-32 MAIN ST                       MIDDLEBURY          VT057530000802388149411     
011601100O0110000151062904000000000THE UNION BANK                      20 LOWER MAIN STREET                MORRISVILLE         VT056610667802888660011     
011601142O0110000151062304000000000FIRST NAT BANK OF ORWELL            441 MAIN ST                         ORWELL              VT057600000802948281111     
011601171O0110000151112301000000000RANDOLPH NATIONAL BANK              MAIN ST BOX 368                     RANDOLPH            VT050600000802728961111     
011601236O0110000151110701000000000FIRST COMMUNITY BANK                P. O. BOX 30                        WOODSTOCK           VT050910000802457450011     
011601265O0110000151052804000000000CHITTENDEN TRUST COMPANY            2 BURLINGTON SQ                     BURLINGTON          VT054010000802660127311     
011692588O0110000151070705000000000OPPORTUNITIES CREDIT UNION          18 PEARL STREET                     BURLINGTON          VT054012928802865340411     
011692601O0110000151100394000000000BENNINGTON E/E FED C. U.            401 GAGE STREET                     BENNINGTON          VT052010000802442145911     
011700425O0110000151100305000000000NORTHWAY BANK                       9 MAIN STREET                       BERLIN              NH035700000603752117111     
011700564O0110000151021301000000000CITIZENS BANK                       1 CITIZENS DRIVE                    RIVERSIDE           RI029150000401456752311     
011701084O0110000151063000000000000CONNECTICUT RIVER BANK              P. O. BOX 500                       CHARLESTOWN         NH036030500603826776411     
011701107O0110000151051002000000000LANCASTER NATIONAL BANK             1 MIDDLE STREET                     LANCASTER           NH035840109603788497311     
011701262B0110000151112904000000000CFX  BANK                           MAILSTOP-ME091-41                   LEWISTON            ME042401377207753591511     
011701288O0110000151100305000000000NORTHWAY BANK                       9 MAIN ST                           BERLIN              NH035700000603536333911     
011701314O0110000151030807000000000THE FIRST COLEBROOK BANK            132 MAIN ST                         COLEBROOK           NH035760000603237555111     
011701398O0110000151093005000000000WASHINGTON MUTUAL BANK              53 REGIONAL DRIVE                   CONCORD             NH033010000603225100011     
011701424O0110000151110701000000000CONNECTICUT RIVER BANK              PO BOX 500                          CHARLESTOWN         NH036030500603826776411     
011701495O0110000151062304000000000BANK OF NEW HAMPSHIRE               140 MILL STREET                     LEWISTON            ME042401377207753591511     
011701660O0110000151072205000000000LAKE SUNAPEE BANK                   9 MAIN STREET                       NEWPORT             NH037730029603863577211     
011701770O0110000151112904000000000CFX  BANK                           ACH DEPARTMENT                      LEWISTON            ME042401377207753591511     
011701903O0110000151112101000000000COMMUNITY GUARANTY                  PO BOX 996                          PLYMOUTH            NH032640996603536000111     
011701987O0110000151052102000000000LEDYARD NATIONAL BANK               SUITE ONE                           WEST LEBANON        NH037840000603298021011     
011736020O0110000151052307000000000U.S. TREASURY (STORED VALUE CARD)   P.O. BOX 55882                      BOSTON              MA022050000877973898211     
011736114O0110000151052307000000000U.S. TREASURY (STORED VALUE CARD)   P.O. BOX 55882                      BOSTON              MA022050000877973898211     
011736237O0110000151052307000000000U.S. TREASURY (STORD VALUE CARD)    P.O. BOX 55882                      BOSTON              MA022050000877973898211     
011775104O0110000151121197000000000LAKE SUNAPEE BANK                   9 MAIN STREET                       NEWPORT             NH037731503603863577211     
011775120O0110000151072007000000000PASSUMPSIC SAVINGS BANK             1242 MEMORIAL DRIVE                 ST JOHNSBURY        VT058190000802748319611     
011775285O0110000151090606000000000MASCOMA SAVINGS BANK                PO BOX 4399                         WHITE RIVER         VT050010000802280427011     
011800985O0110000151080305000000000BANK OF AMERICA N.A.                PO BOX 27025                        RICHMOND            VA232617025800446013511     
011801007O0110000151071306000000000BANK OF AMERICA N.A.                PO BOX 27025                        RICHMOND            VA232617025800446013511     
011801052O0110000151080305000000000BANK OF AMERICA N.A.                PO BOX 27025                        RICHMOND            VA232617025800446013511     
011802488O0110000151091003000000000BANK OF WESTERN MASS                P.O. BOX 820                        BURLINGTON          VT054020000802660127311     
011804185O0110000151080305000000000BANK OF AMERICA N.A.                PO BOX 27025                        RICHMOND            VA232617025800446013511     
011805388O0110000151062105000000000LENOX NATIONAL BANK                 7 MAIN ST                           LENOX               MA012402311413637001711     
011807043O0110000151021607000000000NEW ALLIANCE BANK                   195 CHURCH ST                       NEW HAVEN           CT065020000203789262811     
011807140O0110000151082305000000000BCPBANK,  N.A.                      255 LAFAYETTE ST.                   NEWARK              NJ071050000973522160011     
011900254O0110000151072105000000000BANK OF AMERICA N.A.                PO BOX 27025                        RICHMOND            VA232617025800446013511     
011900445O0110000151080305000000000BANK OF AMERICA N.A                 PO BOX 27025                        RICHMOND            VA232617025800446013511     
011900571O0110000151033106000000000BANK OF AMERICA, N.A.               PO BOX 27025                        RICHMOND            VA232617025800446013511     
011900652O0110000151080205000000000BANK OF AMERICA N.A.                PO BOX 27025                        RICHMOND            VA232617025800446013511     
011901350O0110000151080205000000000BANK OF AMERICA N.A.                PO BOX 27025                        RICHMOND            VA232617025800446013511     
011901402O0110000151080205000000000BANK OF AMERICA N.A                 PO BOX 27025                        RICHMOND            VA232617025800446013511     
011901651O0110000151080205000000000BANK OF AMERICA N.A.                PO BOX 27025                        RICHMOND            VA232617025800446013511     
011903688B0110000151071406000000000BANK OF AMERICA N.A.                PO BOX 27025                        RICHMOND            VA232617025800446013511     
011910697O0110000151071604000000000THE CONNECTICUT BANK & TRUST COMPANY58 STATE HOUSE SQUARE               HARTFORD            CT061030000860246520011     
011975221O0110000151030807000000000PRUDENTIAL BANK AND TRUST, F.S.B.   H05T                                HARTFORD            CT061030000800957772211     
021000018O0210012081041607000000000THE BANK OF NEW YORK                6023 AIRPORT ROAD                   ORISKANY            NY134240000315765435011     
021000021O0210012081061002000000000JPMORGAN CHASE BANK                 3RD FLOOR                           TAMPA               FL336100000813432370011     
021000089O0210012081010507000000000CITIBANK NA                         111 SYLVAN AVENUE                   ENGLEWOOD CLIFFS    NJ076320000201242220711     
021000128O0210012081061002000000000JPMORGAN CHASE                      3RD FLOOR                           TAMPA               FL336100000813432370011     
021000238O0210012081061002000000000JP MORGAN CHASE BANK                4915 INDEPENDENCE PARKWAY           TAMPA               FL336340000813432370011     
021000306O0210012081061002000000000JPMORGAN CHASE                      3RD FLOOR                           TAMPA               FL336100000813432370011     
021000322O0210012081072105000000000BANK OF AMERICA, N.A.               VA2-430-01-01                       RICHMOND            VA232617025800446013511     
021000678O0210012081041607000000000THE BANK OF NEW YORK                6023 AIRPORT RD                     ORISKANY            NY134240000315765435011     
021001033O0210012081041707000000000DEUTSCHE BANK TRUST CO AMERICAS     MS NY C60-1201                      NEW YORK            NY100050000212250330011     
021001088O0210012081042105000000000HSBC BANK USA, N.A.                 14TH FLOOR                          BUFFALO             NY142030000877472224911     
021001208O0210012080020502000000000FEDERAL RESERVE BANK                100 ORCHARD STREET                  EAST RUTHERFORD     NJ070730000866234568111     
021001318O0210012081010501000000000UNITED STATES TRUST CO. OF N.Y.     499 WASHINGTON BLVD                 JERSEY CITY         NJ073101997201533682911     
021001486O0210012081083101000000000CITIBANK N.A.                       111 SYLVAN AVENUE                   ENGLEWOOD CLIFFS    NJ076320000201242220711     
021004823O0210012081041905000000000HSBC BANK, USA                      14TH FLOOR                          BUFFALO             NY142200000877472224911     
021031207O0210012081072106000000000JP MORGAN ELECTRONIC FIN. SERVICES  FL3-1404                            TAMPA               FL336100000866545650511     
021033205O0210012081052504000000000FREDDIE MAC                         MAILSTOP D5N                        MCLEAN              VA221020000571382416011     
021039500O0210012081042507000000000FANNIE MAE                          MS 2H/3W-08                         WASHINGTON          DC200160000202752601811     
021050466O0210012081042104000000000DISBURSING DIVISION - NEW YORK      1ST FLOOR                           EAST RUTHERFORD     NJ070730000201931427111     
021051384O0210012081031302000000000GNMA WASH I P&I                     1ST FLOOR                           EAST RUTHERFORD     NJ070730000201531315511     
021051452O0210012081031302000000000FRB GNMA P&I                        1ST FLOOR                           EAST RUTHERFORD     NJ070730000201531315511     
021052053O0210012081040607000000000JOINT UPIC ACCOUNT                  100 BROAD STREET                    NEW YORK            NY100040000800875224211     
021100329O0110000151072105000000000BANK OF AMERICA, N.A.               VA2-430-01-01                       RICHMOND            VA232617025800446013511     
021100358O0110000151051906000000000TD BANKNORTH, N.A.                  140 MILL ST                         LEWISTON            ME042401377207753591511     
021100361O0110000151061002000000000JPMORGAN CHASE                      3RD FLOOR                           TAMPA               FL336100000813432370011     
021101108O0110000151081103000000000WACHOVIA BANK  N.A.                 401 LINDEN STREET                   WINSTON-SALEM       NC271500000800841889311     
021101425O0110000151051906000000000TD BANKNORTH, N.A.                  140 MILL ST                         LEWISTON            MA042401377207753591511     
021101438O0110000151122205000000000WEBSTER BANK                        132 GRAND ST                        WATERBURY           CT067020000860612576311     
021101470O0110000151070506000000000BANK OF N.Y.-PUTNAM TR.             6023 AIRPORT ROAD                   ORISKANY            NY134240000315765435011     
021102042O0110000151081103000000000WACHOVIA BANK  N.A.                 401 LINDEN STREET                   WINSTON-SALEM       NC271500000800841889311     
021102330O0110000151051906000000000TD BANKNORTH, N.A.                  140 MILL STOP                       LEWISTON            ME042401377207753591511     
021103274O0110000151072105000000000BANK OF AMERICA, N.A.               VA2-430-01-01                       RICHMOND            VA232617025800446013511     
021103957O0110000151081103000000000WACHOVIA BANK  N.A.                 401 LINDEN STREET                   WINSTON-SALEM       NC271500000800841889311     
021109935O0110000151072105000000000BANK OF AMERICA, N.A.               VA2-430-01-01                       RICHMOND            VA232617025800446013511     
021110209O0110000151010606000000000NEW ALLIANCE BANK                   550 SUMMER ST. /BOX 390             STAMFORD            CT069040390203356560911     
021110571O0110000151051906000000000TD BANKNORTH, N.A.                  140 MILL ST                         LEWISTON            ME042401377207753591511     
021110924O0110000151072105000000000BANK OF AMERICA, N.A.               VA2-430-01-01                       RICHMOND            VA232617025800446013511     
021110966O0110000151080103000000000WILTON BANK                         P.O. BOX 606                        WILTON              CT068970000203762226511     
021111583O0110000152071707221172241UNION SAVINGS BANK                  225 MAIN ST                         DANBURY             CT068100000203830420011     
021111800O0110000151071905000000000WEBSTER BANK                        436 SLATER RD                       NEW BRITAIN         CT060530000800325242411     
021112935O0110000151011601000000000PATRIOT NATIONAL BANK               900 BEDFORD STREET                  STAMFORD            CT069010000203324750011     
021113086O0210012081040306000000000U.S. TRUST COMPANY, N.A.            499 WASHINGTON BOULEVARD            JERSEY CITY         NJ073101997201533682811     
021113125O0110000151030804000000000THE GREENWICH BANK & TRUST CO.      1495 POST ROAD EAST                 WESTPORT            CT068800000203319626011     
021113196O0110000151070505000000000FAIRFIELD COUNTY BANK CORP          374 MAIN STREET                     RIDGEFIELD          CT068770000203431743111     
021113206O0210012081051906000000000TD BANKNORTH, N.A.                  140 MILL ST                         LEWISTON            ME042401377207753591511     
021113251O0110000151012599000000000WESTPORT NATIONAL BANK              1495 POST ROAD EAST                 WESTPORT            CT068800000203319626011     
021113581O0110000151071306000000000THE COMMUNITY'S BANK                OPERATIONS DEPARTMENT               BRIDGEPORT          CT066040000203367838311     
021113662O0110000151092203000000000THE BANK OF NEW CANAAN              208 ELM STREET                      NEW CANAAN          CT068400000203972383811     
021114111O0110000151041706000000000DARIEN ROWAYTON BANK                993 POST ROAD                       DARIEN              CT068200000203656350011     
021114153O0110000151122006000000000THE BANK OF GREENWICH               165 MASON STREET                    GREENWICH           CT068300000203622768011     
021114205O0110000151032307000000000JP MORGAN CHASE BANK                THIRD FLOOR                         TAMPA               FL336100000813432370011     
021114263O0110000151111606000000000HSBC NATIONAL BANK USA              7 LANDMARK SQUARE                   STAMFORD            CT069010000877472224911     
021172661O0110000151050703000000000NEW YORK COMMUNTY BANK              615 MERRICK AVENUE                  WESTBURY            NY115900000516683461211     
021172768O0110000151041807000000000NEWTOWN SAVINGS BANK                39 MAIN STREET                      NEWTOWN             CT064700000203426444011     
021200012O0210012081102201000000000PNC BANK NEWARK                     P7-PFSC-03-H                        PITTSBURGH          PA152190000412762422411     
021200025O0210012081081103000000000WACHOVIA BANK  N.A.                 401 LINDEN STREET                   WINSTON-SALEM       NC271500000800841889311     
021200096O0210012081081103000000000WACHOVIA BANK  N.A.                 401 LINDEN STREET                   WINSTON-SALEM       NC271500000800841889311     
021200326O0210012081081103000000000WACHOVIA BANK  N.A.                 401 LINDEN STREET                   WINSTON-SALEM       NC271500000800841889311     
021200339O0210012081072105000000000BANK OF AMERICA N.A.                VA2-430-01-01                       RICHMOND            VA232617025800446013511     
021200407O0210012081042806000000000NORTH FORK BANK                     9025 ROUTE 25                       MATTITUCK           NY119520000631844100011     
021200559O0210012081081103000000000WACHOVIA BANK  N.A.                 401 LINDEN STREET                   WINSTON-SALEM       NC271500000800841889311     
021200575O0210012081102201000000000PNC BANK N.A.                       P7-PFSC-03-H                        PITTSBURGH          PA152190000412762422411     
021200957O0210012081041505000000000COMMERCE BANK, NORTH                6000 ATRIUM WAY                     MT. LAUREL          NJ080540000856751900011     
021200986O0210012081081103000000000WACHOVIA BANK  N.A.                 401 LINDEN STREET                   WINSTON-SALEM       NC271500000800841889311     
021201011O0210012081081103000000000WACHOVIA BANK  N.A.                 401 LINDEN STREET                   WINSTON-SALEM       NC271500000800841889311     
021201024O0210012081072105000000000BANK OF AMERICA, N.A.               VA2-430-01-01                       RICHMOND            VA232617025800446013511     
021201383O0210012081040607000000000VALLEY NATIONAL BANK                DIRECT DEPOSIT COORDINATOR          WAYNE               NJ074700000973305880011     
021201493O0210012081061002000000000JPMORGAN CHASE                      3RD FLOOR                           TAMPA               FL336100000813432370011     
021201503O0210012081051906000000000TD BANKNORTH NA                     P O BOX 1377                        LEWISTON            ME042401377800462366611     
021201600O0210012081040607000000000VALLEY NATIONAL BANK                1460 VALLEY ROAD                    WAYNE,              NJ074700000973305880011     
021201639O0210012081111700000000000CITY NATIONAL BANK OF N.J.          900 BROAD STREET                    NEWARK              NJ071020000973624086511     
021201794O0210012081081103000000000WACHOVIA BANK  N.A.                 401 LINDEN STREET                   WINSTON-SALEM       NC271500000800841889311     
021201943O0210012081041807000000000PNC BANK                            500 FIRST AVENUE                    PITTSBURGH          PA152190000412803254911     
021202162O0210012081072105000000000BANK OF AMERICA N.A                 VA2-430-01-01                       RICHMOND            VA232617025800446013511     
021202175O0210012081081103000000000WACHOVIA BANK  N.A.                 401 LINDEN STREET                   WINSTON-SALEM       NC271500000800841889311     
021202191O0210012081041707000000000PNC BANK                            500 FIRST AVENUE                    PITTSBURGH          PA152190000412803254911     
021202311O0210012081102201000000000PNC BANK N.A.                       P7-PFSC-03-H                        PITTSBURGH          PA152190000412762422411     
021202337O0210012081061002000000000JPMORGAN CHASE                      3RD FLOOR                           TAMPA               FL336100000813432370011     
021202447O0210012081102201000000000PNC BANK N.A.                       P7-PFSC-03-H                        PITTSBURGH          PA152190000412762422411     
021202609O0210012081072105000000000BANK OF AMERICA, N.A.               VA2-430-01-01                       RICHMOND            VA232617025800446013511     
021202683O0210012081081103000000000WACHOVIA BANK  N.A.                 401 LINDEN STREET                   WINSTON-SALEM       NC271500000800841889311     
021202719O0210012081032307000000000JP MORGAN CHASE BANK, N.A.          THIRD FLOOR                         TAMPA               FL336100000813432370011     
021202968O0210012081072105000000000BANK OF AMERICA, N.A.               VA2-430-01-01                       RICHMOND            VA232617025800446013511     
021203310O0210012082080106021205376LAKELAND BANK                       250 OAK RIDGE ROAD                  OAK RIDGE           NJ074360000973948951111     
021203349O0210012081072105000000000BANK OF AMERICA, N.A.               VA2-430-01-01                       RICHMOND            VA232617025800446013511     
021203475O0210012081081103000000000WACHOVIA BANK  N.A.                 401 LINDEN STREET                   WINSTON-SALEM       NC271500000800841889311     
021203501O0210012081072505000000000BANK OF AMERICA, N.A.               VA2-430-01-01                       RICHMOND            VA232617025800446013511     
021203572O0210012081081103000000000WACHOVIA BANK  N.A.                 401 LINDEN STREET                   WINSTON-SALEM       NC271500000800841889311     
021203682O0210012081040607000000000VALLEY NATL BANK                    1460 VALLEY ROAD                    WAYNE               NJ074700000973305880011     
021203792O0210012082032006021205376LAKELAND BANK                       250 OAK RIDGE RD                    OAK RIDGE           NJ074380000973948951111     
021203941O0210012081051906000000000TD BANKNORTH NA                     P O BOX 1377                        LEWISTON            ME042401377800462366611     
021204403O0210012081052005000000000VALLEY NATIONAL BANK                DIRECT DEPOSIT COORDINATOR          WAYNE               NJ074700000973305401011     
021204416O0210012081081699000000000AMBOY NATIONAL BANK                 3590 U.S. 9 SOUTH                   OLD BRIDGE          NJ088570000732591870011     
021204597O0210012081042507000000000FIRST HOPE BANK                     ROUTE 46                            GREAT MEADOWS       NJ078380000908459412111     
021204652O0210012081072505000000000BANK OF AMERICA, N.A.               VA2-430-01-01                       RICHMOND            VA232617025800446013511     
021205237O0210012081061504000000000PEAPACK-GLADSTONE BANK              2 CROSSROADS DRIVE                  BEDMINSTER          NJ079210000908306808211     
021205253O0210012081040607000000000VALLEY NATIONAL BANK                1460 VALLEY ROAD                    WAYNE               NJ074700000973305880011     
021205376O0210012081060303000000000LAKELAND BANK                       250 OAK RIDGE ROAD                  OAK RIDGE           NJ074388906973948951111     
021205499O0210012081052507000000000THE PROVIDENT BANK                  830 BERGAN AVE                      JERSEY CITY         NJ073060000201915548211     
021205648O0210012081041405000000000UNION CENTER NATIONAL BANK          1180 SPRINGFIELD ROAD               UNION               NJ070830000908688950011     
021205871O0210012081011907000000000TD BANKNORTH, NA                    P O BOX 1377                        LEWISTON            ME042401377800462366611     
021206074O0210012081090806000000000SOVEREIGN BANK                      1125 BERKSHIRE BOULEVARD            WYOMISSING          PA196100000877768226511     
021206207O0210012081061002000000000JPMORGAN CHASE                      3RD FLOOR                           TAMPA               FL336100000813432370011     
021206249O0210012081041505000000000SUSSEX BANK                         200 MUNSONHURST ROAD                FRANKLIN            NJ074160353973209201011     
021206278O0210012081010901000000000AMBOY NATIONAL BANK                 3590 HIGHWAY 9                      OLD BRIDGE          NJ088570000732591870011     
021206469O0210012081071307000000000MERRILL LYNCH BANK & TRUST CO, FSB  899 SCUDDERS MILL ROAD              PLAINSBORO          NJ085360000609282109411     
021206537O0210012081072205000000000VALLEY NATIONAL BANK                1455 VALLEY ROAD                    WAYNE               NJ074700000973305401011     
021206553O0210012081011907000000000TD BANKNORTH, NA                    P O BOX 1377                        LEWISTON            ME042401377800462366611     
021206566O0210012081042105000000000GREATER COMMUNITY BANK              100 FURLER STREET                   TOTOWA              NJ075120000973942111111     
021206582O0210012081030304000000000ATLANTIC STEWARDSHIP BANK           630 GODWIN AVENUE                   MIDLAND PK          NJ074320000201444710011     
021206676O0210012081090806000000000SOVEREIGN BANK                      1125 BERKSHIRE BOULEVARD            WYOMISSING          PA196100000877768226511     
021206715O0210012081040607000000000VALLEY NATIONAL BANK                1460 VALLEY ROAD                    WAYNE               NJ074700000973305880011     
021206948O0210012081081999000000000BRUNSWICK BK & TR. CO.              439 LIVINGSTON AVENUE               NEW BRUNSWICK       NJ089010000732247580011     
021206993O0210012081040607000000000VALLEY NATIONAL BANK                1460 VALLEY ROAD                    WAYNE               NJ074700000973305880011     
021207002O0210012081101802000000000SOVEREIGN BANK                      1125 BERKSHIRE BLVD.                WYOMISSING          PA196100000877768226511     
021207028O0210012081101802000000000SOVEREIGN BANK                      1125 BERKSHIRE BLVD.                WYOMISSING          PA196100000877768226511     
021207044O0210012081050506000000000GREATER COMMUNITY BANK              100 FURLER STREET                   TOTOWA              NJ075120000973942111111     
021207057O0210012082032006021205376LAKELAND BANK                       250 OAK RIDGE ROAD                  OAK RIDGE           NJ074388906973948951111     
021207112O0210012081052703000000000NEW YORK COMMUNITY BANK             615 MERRICK AVENUE                  WESTBURY            NY115900000516683461211     
021207138O0310000402121704031201328COMMERCE BANK, SHORE                6000 ATRIUM WAY                     MT. LAUREL          NJ080540000888751900011     
021207154O02100120810421040000000001ST CONSTITUTION BANK               2650 ROUTE # 130                    CRANBURY            NJ085120000609395060711     
021207167O0210012081011907000000000TD BANKNORTH, NA                    P O BOX 1377                        LEWISTON            ME042401377800462366611     
021207196O0210012081022697000000000COMMUNITY BANK OF BERGEN COUNTY     201 ROCHELLE AVE                    ROCHELLE PARK,      NJ076220000201587133311     
021207206O0210012081051906000000000TD BANKNORTH, NA                    P O BOX 1377                        LEWISTON            ME042401377800462366611     
021207235O0210012081040607000000000VALLEY NATIONAL BANK                1460 VALLEY ROAD                    WAYNE               NJ074700000973305880011     
021207264O0210012081081103000000000WACHOVIA BANK  N.A.                 401 LINDEN STREET                   WINSTON-SALEM       NC271500000800841889311     
021207280O0210012081040607000000000VALLEY NATIONAL BANK                1460 VALLEY ROAD                    WAYNE,              NJ074700000973305880011     
021207358O0210012081101802000000000SOVEREIGN BANK                      1125 BERKSHIRE BLVD.                WYOMISSING          PA196100000877768226511     
021207400O0210012081051906000000000TD BANKNORTH NA                     P O BOX 1377                        LEWISTON            ME042401377800462366611     
021207413O0210012081121704000000000COMMERCE BANK N.A.                  11000 ATRIUM WAY                    MT. LAUREL          NJ080540000609778180011     
021207468O0210012081051906000000000TD BANKNORTH NA                     P O BOX 1377                        LEWISTON            ME042401377800462366611     
021209990O0210012081032598000000000SKYLANDS COMMUNITY BANK             PO BOX 507                          HACKETTSTOWN        NJ078400000908850901011     
021210002O0210012081040907000000000VALLEY NATIONAL BANK                1460 VALLEY ROAD                    WAYNE               NJ074700000973305880011     
021210044O0210012081050707000000000SKYLANDS COMMUNITY BANK             P.O. BOX 507                        HACKETTSTOWN        NJ078400000908850901011     
021210057O0210012081042506000000000UNITY BANK                          64 OLD HIGHWAY 22                   CLINTON             NJ088090000800618226511     
021210073O0210012081041706000000000WOORI AMERICA BANK                  16TH FLOOR                          NEW YORK            NY100010000212244300011     
021210086O0210012081061002000000000JPMORGAN CHASE BANK                 3RD FLOOR                           TAMPA               FL336100000813432370011     
021210112O0210012081010501000000000FIRST BANK AMERICANO                339 NORTH BROAD STREET              ELIZABETH           NJ072080000908355226511     
021213041O0210012082032006021205376LAKELAND BANK                       250 OAK RIDGE ROAD                  OAK RIDGE           NJ074380000937948951111     
021213054O0210012081082905000000000CENTRAL JERSEY BANK, N.A.           6 WEST END COURT                    LONG BRANCH         NJ077400000732923111511     
021213067O0310000402070904031206420SUN NATIONAL BANK                   226 LANDIS AVENUE                   VINELAND            NJ083600000856691770011     
021213096O0210012081040207000000000CATHAY BANK                         1769 ROUTE 27                       EDISON              NJ088170000732985888011     
021213177O0210012082040507221278721SYNERGY BANK                        310 NORTH AVENUE EAST               CRANFORD            NJ070160000908272383811     
021213180O0210012081061907000000000CENTRAL JERSEY BANK, NA             6 WEST END COURT                    LONG BRANCH         NJ077400000732923111511     
021213216O0210012081041907000000000THE TOWN BANK                       520 SOUTH AVENUE                    WESTFIELD           NJ070900000908301080011     
021213232O0210012081041707000000000SOMERSET HILLS BANK                 155 MORRISTOWN ROAD                 BERNARDSVILLE       NJ079240000908630502311     
021213287O0210012081012006000000000SUN NATIONAL BANK                   226 LANDIS AVENUE                   VINELAND            NJ083600000856691770011     
021213300O0210012081040507000000000UNION CENTER NATIONAL BANK          1180 SPRINGFIELD ROAD               UNION               NJ070830000908688950011     
021213313O0210012081050503000000000GRAND BANK, NA.                     4287 RT. ONE SOUTH                  MONMOUTH JCT.       NJ088520000609514390011     
021213339O0210012081051906000000000GREATER COMMUNITY BANK              100 FURLER STREET                   TOTOWA              NJ075120000973942111111     
021213368O0210012081042706000000000TD WATERHOUSE BANK, N.A.            31 WEST 52ND STREET                 NEW YORK            NY100190000800411559211     
021213371O0210012081112800000000000NEW MILLENNIUM BANK                 57 LIVINGSTON AVENUE                NEW BRUNSWICK       NJ089010000732729110011     
021213397O0210012081041906000000000PROVIDENT BANK                      400 RELLA BOULEVARD                 MONTEBELLO          NY109010000845369827311     
021213410O0210012081041905000000000HILLTOP COMMUNITY BANK              180 SOUTH STREET                    NEW PROVIDENCE      NJ079740000908522009011     
021213449O0210012081100606000000000MILLENNIUM BCPBANK, NA              255 LAFAYETTE STREET                NEWARK              NJ071050000973522160011     
021213465O0210012081052803000000000TWO RIVER COMMUNITY BANK            SUITE 3A                            EATONTOWN           NJ077240000732706900911     
021213481O0210012081042505000000000ALLEGIANCE COMMUNITY BANK           200 VALLEY STREET                   SOUTH ORANGE        NJ070790000973761555311     
021213494O0210012081011907000000000TD BANKNORTH, NA                    P O BOX 1377                        LEWISTON            ME042401377800462366611     
021213504O0210012081090600000000000RUMSON-FAIR HAVEN BANK & TRUST CO.  636 RIVER ROAD                      FAIR HAVEN          NJ077040000732933444511     
021213520O0210012081102300000000000BAYONNE COMMUNITY BANK              860 BROADWAY                        BAYONNE             NJ070020000201823070011     
021213559O0210012081041907000000000MARINER'S BANK                      935 RIVER ROAD                      EDGEWATER           NJ070200000201224911011     
021213591O0210012081052504000000000METLIFE BANK, N.A.(METLIFE DIVISION)1 CROSSROADS DRIVE                  BEDMINSTER          NJ079210000908306283111     
021213698O0210012081042007000000000PASCACK COMMUNITY BANK              21 JEFFERSON AVENUE                 WESTWOOD            NJ076750000201722472211     
021213711O0210012081081902000000000ENTERPRISE BANK                     490 KENILWORTH BLVD                 KENILWORTH          NJ070330000908653180011     
021213892O0210012081110804000000000CITIZENS COMMUNITY BANK             171 EAST RIDGEWOOD AVENUE           RIDGEWOOD           NJ074510000201670848411     
021213902O0210012081041806000000000NEW MILLENNIUM BANK                 57 LIVINGSTON AVENUE                NEW BRUNSWICK       NJ089010000732729110011     
021213944O0210012081011005000000000NORTH JERSEY COMMUNITY BANK         180 SYLVAN AVENUE                   ENGLEWOOD CLIFFS    NJ076320000201816890011     
021213986O0210012081041807000000000NOBLE COMMUNITY BANK                351 SPARTA AVE                      SPARTA              NJ078710000973726829411     
021214053O0210012081042606000000000TEAM CAPITAL BANK                   2151 EMRICH BOULEVARD               BETHLEHEM           PA180200000610297404011     
021214066O0210012081040907000000000INDUS AMERICAN BANK                 1536 OAK TREE ROAD                  ISELIN              NJ088300000732603820011     
021214082O0210012081050307000000000NORTHERN STATE BANK                 P O BOX 39                          CLOSTER             NJ076240000201767999511     
021214095O0210012081041406000000000HIGHLANDS STATE BANK                310 ROUTE 94                        VERNON              NJ074620160973764320011     
021214105O0210012081011906000000000FIRST STATE BANK                    16 COMMERCE DRIVE                   CRANFORD            NJ070160000908272040011     
021214163O0210012081032706000000000HERITAGE COMMUNITY BANK             1206 SUSSEX TURNPIKE                RANDOLPH            NJ078690000973895580011     
021214189O0210012081060206000000000BANK OF NEW JERSEY                  204 MAIN STREET                     FORT LEE            NJ070240000201944860011     
021214299O0210012081022807000000000HERITAGE COMMUNITY BANK             1206 SUSSEX TURNPIKE                RANDOLPH            NJ078690000973895580011     
021214312O0210012081050907000000000PEAPACK-GLADSTONE BANK              158 ROUTE 206 NORTH                 GLADSTONE           NJ079340000908306809011     
021214396O0210012081060107000000000SUSSEXBANK                          P O BOX 353                         FRANKLIN            NJ074160353973209201011     
021272590O0210012081011907000000000TD BANKNORTH, NA                    P O BOX 1377                        LEWISTON            ME042401377800462366611     
021272626O0210012081010899000000000BANCO POPULAR, NORTH AMERICA        120 BROADWAY                        NEW YORK            NY102710000212417674111     
021272655O0210012081031502000000000CITIBANK, F.S.B.                    111 SYLVAN AVENUE                   ENGLEWOOD CLIFFS    NJ076320000718248901011     
021272707O0210012081060101000000000FORT LEE FEDERAL SAVINGS BANK, FSB  817 ABBOTT BOULEVARD                FORT LEE            NJ070240000201224929211     
021272723O0210012081082506000000000WASHINGTON MUTUAL BANK              20855 STONE OAK PARKWAY             SAN ANTONIO         TX782580000866319057411     
021272736O0210012081010204000000000LEHMAN BROTHERS BANK, FSB           SUITE 200                           WILMINGTON          DE198010000302552211011     
021272749O0210012081060806000000000SADDLE RIVER VALLEY BANK            171 EAST SADDLE RIVER ROAD          SADDLE RIVER        NJ074580000201760007611     
021283547O0210012081041607000000000RUTGERS UNIV. STUDENT & ALUMNI FCU  RUTGERS STUDENT CTR., ROOM 103      NEW BRUNSWICK       NJ089030000732932811711     
021283615O0210012081103105000000000HMC (NJ) FEDERAL CREDIT UNION       2100 WESCOTT DRIVE                  FLEMINGTON          NJ088220000908788614811     
021283631O0210012081042304000000000PORT IVORY FEDERAL C.U.             SUITE #1                            AVENEL              NJ070010000732602979911     
021283673O0210012081041306000000000NORTH JERSEY FEDERAL CREDIT UNION   P.O BOX 379                         TOTOWA              NJ075110379973785920011     
021283738O0210012081011398000000000NESTLE (FREEHOLD) FCU               61 JERSEYVILLE AVENUE               FREEHOLD,           NJ077280000732577720611     
021283767O0210012081022598000000000RENAISSANCE COMMUNITY DEV. CU       PO BOX 328                          SOMERSET            NJ088750000732247688311     
021283770O0210012081041907000000000ATLANTIC HEALTH FCU                 99 BEAUVIOR AVENUE                  SUMMIT              NJ079020000908522354011     
021283851O0210012081123005000000000PINNACLE FCU                        135 RARITAN CENTER PARKWAY          EDISON              NJ088370000800742505011     
021283877O0210012081051601000000000NEW HOPE BAPTIST CHURCH OF E.O. FCU 144 NORMAN STREET                   EAST ORANGE         NJ070170000973678755611     
021283903O0210012081050205000000000ST JAMES HOSPITAL FCU               155 JEFFERSON STREET                NEWARK              NJ071050000973465276511     
021300019O0210012081042606000000000BANK OF AMERICA N.A                 VA2-430-01-01                       RICHMOND            VA232270000800446013511     
021300077O0210012081082103000000000KEY BANK NATIONAL ASSOCIATION       4910 TIEDEMAN ROAD                  BROOKLYN            OH441440000800304985611     
021300336O0210012081051106000000000M & T BANK                          2ND FLOOR                           AMHERST             NY142280000800724224011     
021300381O0210012081082103000000000KEY BANK NATIONAL ASSOCIATION       4910 TIEDEMAN ROAD                  BROOKLYN            OH441440000800304985611     
021300420O0210012081042105000000000HSBC BANK, USA                      P.O. BOX 643                        BUFFALO             NY142400000877472224911     
021300462O0210012081061002000000000JPMORGAN CHASE BANK                 3RD FLOOR                           TAMPA               FL336100000813432370011     
021300556O0210012081082103000000000KEY BANK NATIONAL ASSOCIATION       4910 TIEDEMAN ROAD                  BROOKLYN            OH441440000800304985611     
021300624O0210012081051106000000000M & T BANK       .                  2ND FLOOR                           AMHERST             NY142280000800724224011     
021300640O0210012081042105000000000HSBC BANK USA                       ONE HSBC CENTER                     BUFFALO             NY142030000877472224911     
021300776O0210012081072505000000000BANK OF AMERICA, N.A.               VA2-430-01-01                       RICHMOND            VA232617025800446013511     
021300912O0210012081042705000000000TRUSTCO BANK                        320 STATE STREET                    SCHENECTADY         NY123050000518381388811     
021301089O0210012081042105000000000HSBC BANK, USA                      P.O. BOX 643                        BUFFALO             NY142400000877472224911     
021301115O0210012081041505000000000CHEMUNG CANAL TRUST CO              ONE CHEMUNG CANAL PLAZA             ELMIRA              NY149020000607737376611     
021301678O0210012081042105000000000HSBC BANK,  USA                     P.O. BOX  643                       BUFFALO             NY142400000877472224911     
021301694O0210012081081406000000000THE BANK OF NEW YORK                6023 AIRPORT ROAD                   ORISKANY            NY134240000315765435011     
021301869O0210012081042105000000000HSBC BANK, USA                      14TH FLOOR                          BUFFALO             NY142030000877472224911     
021302130O0210012081041907000000000NBT BANK NA                         52 SOUTH BROAD STREET               NORWICH             NY138150000800628226511     
021302143O0210012081041907000000000NBT BANK                            52 SOUTH BROAD STREET               NORWICH             NY138150351800628226511     
021302554O0210012081041307000000000GLENS FALLS NATL BK&TR CO           250 GLEN ST                         GLENS FALLS         NY128010000518793412111     
021302567O0210012081052305000000000TD BANKNORTH, NA - NY               140 MILL STREET                     LEWISTON            ME042401377800462366611     
021302622O0210012081072505000000000BANK OF AMERICA, N.A.               VA2-430-01-01                       RICHMOND            VA232617025800446013511     
021302648O0210012081010302000000000TOMPKINS TRUST COMPANY              P.O. BOX 460                        ITHACA              NY148500000607256321011     
021302884O0210012081041305000000000THE ADIRONDACK TRUST COMPANY        473 BROADWAY                        SARATOGA SPRINGS    NY128660000518584584411     
021302978O0210012082041406221371165PARTNERS TRUST BANK                 2 ELLINWOOD COURT                   NEW HARTFORD        NY134130000315731541811     
021303139O0210012081050307000000000ALLIANCE BANK, N.A.                 160 MAIN STREET                     ONEIDA              NY134210000315366321711     
021303472O0210012081021297000000000WILBER NATIONAL BANK                245 MAIN STREET                     ONEONTA             NY138202502607433419011     
021303511O0210012081041007000000000ALLIANCE BANK, N.A.                 160 MAIN STREET                     ONEIDA              NY134210000315363450011     
021303618O0210012081041907000000000NBT BANK NA                         52 SOUTH BROAD STREET               NORWICH             NY138150000800628226511     
021304675O0210012081042706000000000BALLSTON SPA NATIONAL BANK          P.O. BOX 70                         BALLSTON SPA        NY120200000518885678111     
021305386O0210012081041504000000000COMMUNITY BANK, NA                  91 MAIN STREET                      CANTON              NY136170000315379454511     
021305577O0210012081041907000000000NBT BANK, NATIONAL ASSOCIATION      52 SOUTH BROAD STREET               NORWICH             NY138150000800628226511     
021305991O0210012081072888000000000FIRST NATL BK OF GROTON             161 MAIN STREET                     GROTON              NY130731131607898587111     
021306547O0210012081120390000000000CAYUGA LAKE NATL BK                 3 N CAYUGA ST                       UNION SPRINGS       NY131600000315889735811     
021306822O0210012081042105000000000HSBC BANK, USA                      P.O. BOX 643                        BUFFALO             NY142400000877472224911     
021306974O0210012081042304000000000NBT BANK NA                         52 SOUTH BROAD ST                   NORWICH             NY138150000607337621211     
021307054O0210012081111700000000000NATIONAL BANK OF COXSACKIE          3-7 REED ST.  P.O.BOX 400           COXSACKIE           NY120510000518731616111     
021307096O0210012081052303000000000DELAWARE NATL BK OF DELHI           P.O. BOX 508                        DELHI               NY137530508607746070011     
021307164O0210012081102693000000000FIRST NATL BK OF DRYDEN             7 WEST MAIN ST.                     DRYDEN              NY130530000607844814111     
021307520O0210012081041907000000000NBT BANK NA                         52 SOUTH BROAD ST                   NORWICH             NY138150000800628226511     
021307559O0210012081091701000000000COMMUNITY BANK N.A.                 45-49 COURT STREET                  CANTON              NY136170000315379452611     
021307708O0210012081081203000000000EVERGREEN BANK, N.A.                140 MILL STREET                     LEWISTON            ME042401377800462366611     
021307711O0210012081101894000000000NATL UNION BANK OF KINDERHOOK       1 HUDSON STREET                     KINDERHOOK          NY121060000518758710111     
021307740O0210012081041907000000000NBT BANK NA                         52 SOUTH BROAD ST                   NORWICH             NY138150000800628226511     
021308176O0210012081070706000000000CITIBANK NYS                        111 SYLVAN AVENUE                   ENGLEWOOD CLIFFS    NJ076320000201242220711     
021308396O0210012081041207000000000BANK OF RICHMONDVILLE               857 EAST MAIN STREET                COBLESKILL          NY120430000518234439711     
021308642O0210012081041505000000000TIOGA STATE BANK                    P.O. BOX 386                        SPENCER             NY148830000607589700011     
021308671O0210012081021297000000000NATL BK STAMFORD                    ONE CHURCHILL AVENUE                STAMFORD,           NY121670279607652754511     
021308781O0210012081060407000000000COMMUNITY BANK, N.A.                91 MAIN STREET                      CANTON              NY136170000315379454511     
021308817O0210012081040207000000000ONEIDA SAVINGS BANK                 182 MAIN STREET                     ONEIDA              NY134210000315363200011     
021308833O0210012081091001000000000THE N/B OF DELAWARE WALTON          131 DELAWARE ST.                    WALTON              NY138560000607865412611     
021309201O0210012081062894000000000CITIZENS NATIONAL BANK OF HAMMOND   PO BOX 187                          HAMMOND             NY136460000315324596111     
021309285O0210012081070103000000000REDWOOD BANK                        1000 COFFEEN STREET                 WATERTOWN           NY136010000315786810011     
021309434O0210012081061002000000000JPMORGAN CHASE BANK                 3RD FLOOR                           TAMPA               FL336100000813432370011     
021309638O0210012081041907000000000NBT BANK, N.A.                      52 SOUTH BROAD ST.                  NORWICH             NY138150000800628226511     
021309735O0210012081122895000000000SOLVAY BANK                         1537 MILTON AVENUE                  SOLVAY              NY132090000315468166111     
021309997O0210012081072094000000000CITIZENS BANK OF CAPE VINCENT       P.O. BOX 277 BROADWAY               CAPE VINCENT        NY136180000315654211511     
021310038O0210012081041307000000000M & T BANK                          2ND FLOOR                           AMHERST             NY142280000800724224011     
021310326O0210012081051404000000000COMMUNITY BANK, N.A.                91 MAIN ST                          CANTON              NY136170000315379454511     
021310407O0210012081042706000000000CHAMPLAIN NATIONAL BANK             3900 NYS ROUTE 22                   WILLSBORO           NY129960000518963420111     
021310465O0210012081052507000000000THE UPSTATE NATIONAL BANK           729 PROCTOR AVE.                    OGDENSBURG          NY136690000315393333211     
021310494O0210012081052305000000000TD BANKNORTH, N.A. - NY             140 MILL ST                         LEWISTON            MA042401377800462366611     
021310591O0210012081021903000000000STATE BANK OF CHITTENANGO           101 FALLS BLVD                      CHITTENANGO,        NY130370000315687392111     
021310711O0210012081021297000000000FIRST NATL BANK OF SCOTIA           201 MOHAWK AVE                      SCOTIA              NY123022128518370721411     
021311383O0210012081021297000000000BANK OF UTICA                       222 GENESEE STREET                  UTICA               NY135024385315797270011     
021311529O0210012081041807000000000SARATOGA NATL BANK & TRUST COMPANY  250 GLEN STREET                     GLENSFALLS          NY128010000518793412111     
021312971O0210012081051204000000000CAPITAL BANK & TRUST COMPANY        145 WOLF ROAD                       ALBANY              NY122050000518435890311     
021313103O0210012081072205000000000CITIZENS BANK NA                    1 CITIZENS DRIVE                    RIVERSIDE           RI029150000401282752311     
021313569O0210012081011604000000000FIRST NIAGARA BANK                  6950 SOUTH TRANSIT                  LOCKPORT            NY140940000716625750011     
021313734O0210012081042004000000000PATHFINDER COMMERCIAL BANK          214 W 1ST STREET                    OSWEGO              NY131260000315207804511     
021313747O0210012081011405000000000FIRST NIAGARA BANK                  6950 SOUTH TRANSIT ROAD             LOCKPORT            NY140940000716625750011     
021313886O0210012081061604000000000GREENE COUNTY COMMERCIAL BANK       302 MAIN STREET                     CATSKILL            NY124140000518943074211     
021313925O0210012081111504000000000PIONEER COMMERCIAL BANK             21 SECOND STREET                    TROY                NY121800000518273053911     
021314306O0210012081040207000000000TIOGA STATE BANK                    P O BOX 386                         SPENCER             NY148830000607589700011     
021314416O0210012081071807000000000CHAMPLAIN NATIONAL BANK             3900 NYS ROUTE 22                   WILLSBORO           NY129960000518963420111     
021373059O0210012081120205000000000PATRIOT FEDERAL BANK                211 ERIE BOULEVARD                  CANAJOHARIE         NY133170000518673440011     
021382642O0210012081041307000000000STEWART'S FEDERAL CREDIT UNION      2907 STATE ROUTE 9                  BALLSTON SPA        NY120200000518581120111     
021382655O0210012081041106000000000OSWEGO COUNTY PUBLIC F.C.U.         175 E. 7TH STREET/P.O. BOX 310      OSWEGO              NY131260000315343782211     
021382671O0210012081021297000000000ST. CLARE'S HOSPITAL EMP. FCU       600 MCCLELLAN STREET                SCHENECTADY         NY123040000518347588111     
021383463O0210012081042705000000000UHS EMPLOYEES FCU                   33-57 HARRISON STREET               JOHNSON CITY        NY137900000607763656511     
021383528O0210012081041207000000000CROUSE  FCU                         736 IRVING AVENUE                   SYRACUSE            NY132100000315470792811     
021383586O0210012081042004000000000BHA RESIDENTS COMMUNITY DEV'T F.C.U.P.O. BOX 1906                       BINGHAMTON          NY139010000607723949111     
021383751O0210012081041505000000000RPI EMPLOYEES FEDERAL CREDIT UNION  ROOM 313 WEST HALL                  TROY                NY121800000518276659111     
021383803O0210012081042105000000000STATE FARM NORTHEAST FCU            100 STATE FARM PLACE                BALLSTON SPA        NY120200000518884505911     
021384190O0210012081052303000000000SEFCU CREDIT UNION                  P.O. BOX 12189                      ALBANY              NY122122189518464530411     
021384200O0210012081080699000000000CVPH EMPLOYEES FCU                  75 BEEKMAN STREET                   PLATTSBURGH         NY129010000518562703011     
021384239O0210012081052005000000000DIRECTORS CHOICE CU                 426 NEW KARNER ROAD                 ALBANY              NY122050000518456268611     
021384365O0210012081081303000000000FASNY FCU                           107 WASHINGTON AVENUE               ALBANY              NY122100000518434735211     
021401617O0210012081042304000000000STATE BANK LONG ISLAND              580 EAST JERICHO TURNPIKE           HUNTINGTON STATION  NY117467378516495509211     
021404203O0210012081050207000000000THE SUFFOLK COUNTY NATIONAL BANK    206 GRIFFING AVENUE                 RIVERHEAD           NY119010000631208245011     
021404465O0210012081072505000000000BANK OF AMERICA, N.A.               VA2-430-01-01                       RICHMOND            VA232617025800446013511     
021405464O0210012081012607000000000SUFFOLK COUNTY N/B                  P O BOX 9000                        RIVERHEAD           NY119010000631208246411     
021406667O0210012081100599000000000BRIDGEHAMPTON NATIONAL BANK         P.O. BOX 3005                       BRIDGEHAMPTON       NY119320000516283948011     
021407912O0210012081042806000000000NORTH FORK BANK                     9025 ROUTE 25                       MATTITUCK           NY119520000631844100011     
021408597O0210012081042705000000000BANK OF SMITHTOWN                   SUITE 160                           HAMPPAUCE           NY117880000631360930011     
021408704O0210012081042806000000000NORTH FORK BANK                     9025 ROUTE 25                       MATTITUCK           NY119520000631844100011     
021409033O0210012081061002000000000JPMORGAN CHASE BANK                 3RD FLOOR                           TAMPA               FL336100000813432370011     
021409169O0210012081100305000000000JP MORGAN CHASE BANK                3RD FLOOR                           TAMPA               FL336100000813432370011     
021409567O0210012081042406000000000NORTH FORK BANK                     9025 ROUTE 25                       MATTITUCK           NY119520000631844100011     
021410080O0210012081042105000000000HSBC BANK, USA                      14TH FLOOR                          BUFFALO             NY142030000877472224911     
021410637O0210012081032307000000000JP MORGAN CHASE BANK, N.A.          THIRD FLOOR                         TAMPA               FL336100000813432370011     
021410695O0210012081042806000000000NORTH FORK BANK                     9025 RT. 25                         MATTITUCK           NY119520000631844100011     
021411335O0210012081041707000000000FIRST NATIONAL BANK OF LI           30 GLEN HEAD ROAD                   GLEN HEAD           NY115451411516671490011     
021412114O0210012081072607000000000NEW YORK COMMERCIAL BANK            1601 VETERANS MEMORIAL HIGHWAY      ISLANDIA            NY117490000516683461211     
021413155O0210012081120604000000000HAMPTONS STATE BANK                 NORTH SEA RD @ WINDMILL LN BOX 5037 SOUTHHAMPTON        NY119690000631287950011     
021413388O0210012081010906000000000AMERICAN COMMUNITY BANK             300 GLEN STREET                     GLEN COVE           NY115420000516609290011     
021413935O0210012081031605000000000COMMUNITY NATIONAL BANK             200 MIDDLE NECK ROAD                GREAT NECK          NY110210000516498911111     
021414125O0210012081032006000000000FIRST TRADE UNION                   270 MOTOR PARKWAY                   HAUPPAUGE           NY117880000617728737111     
021414280O0210012081041707000000000MADISON NATIONAL BANK               SUITE 400                           HAUPPAUGE           NY117880000631348699911     
021414345O0210012081061407000000000FLUSHING COMMERCIAL BANK            661 HILLSIDE AVE                    NEW HYDE PARK       NY110400000718961540011     
021473027O0210012081042506000000000WORLD SAVINGS BANK FSB              4101 WISMAN DRIVE                   SAN ANTONIO         TX782510000210543306511     
021473030O0210012081030705000000000GOLDEN FIRST BANK                   3 GRACE AVENUE                      GREAT NECK          NY110210000516570425611     
021483282O0210012081033104000000000PEOPLE'S ALLIANCE FCU               125 WIRELESS BLVD                   HAUPPAUGE           NY117880000631434350011     
021483428O0210012081092997000000000THE HEART CENTER FCU                100 PORT WASHINGTON BLVD.           ROSLYN              NY115760000516562665011     
021502011O0210012081102097000000000BANCO POPULAR                       ATTN: DEPT. 638                     SAN JUAN            PR009362708787751980011     
021502024O0210012081070999000000000FIRST BANK P.R.                     BOX 9146                            SANTURCE            PR009080000787729802411     
021502037O0210012081041697000000000THE BANK OF NOVA SCOTIA             273 PONCE DE LEON AVE               HATO REY            PR009180000787766799211     
021502040O0210012081042700000000000CITIBANK, PUERTO RICO               P.O. BOX 364106                     SAN JUAN            PR009364106787753555511     
021502095O0210012081040902000000000BANCO POPULAR DE PUERTO RICO        CARR. 176 KM 1.3                    SAN JUAN            PR009260000787751980011     
021502105O0210012081060303000000000BANCO POPULAR NATIONAL ASSOCIATION  #10 PEDRO MARQUEZ STREET            CULEBRA             PR007750000787765980011     
021502118O0210012081041607000000000GOVT DEVELOPMENT BANK FOR P.R.      ROBERTO SANCHEZ VILELLA CENTER      SANTURCE            PR009071089787722252511     
021502134O0210012081012304000000000SANTANDER OVERSEAS BANK, INC.       10TH FLOOR                          SAN JUAN            PR009170000787281207511     
021502228O0210012081051204000000000BANCO BILBAO VIZCAYA ARGENTARIA PR  174 CENTRO INDUSTRIAL MINILLAS      BAYAMON             PR009590000787995812111     
021502273O0210012081041505000000000SCOTIABANK DE PUERTO RICO           273 PONCE DE LEON AVE               HATO REY            PR009180000787766783611     
021502341O0210012081012304000000000BANCO SANTANDER DE PUERTO RICO      ARTERIAL HOSTOS AVE. C2-#1          HATO REY            PR009180000787281207511     
021502383O0210012081052903000000000BANCO COOPERATIVO DE PUERTO RICO    AVE. PONCE DE LEON #623             HATO REY            PR009170000787641105711     
021502668O0210012081071098000000000BANCO POPULAR                       GPO BOX 362708                      SAN JUAN            PR009362708787766079011     
021502723O0210012081012304000000000BANCO SANTANDER DE PR               ARTERIAL HOSTOS AVE. C2-#1          HATO REY            PR009180000787281207511     
021502736O0210012081040405000000000EUROBANK                            P.O. BOX 191009                     SAN JUAN            PR009191009787722191011     
021502752O0210012081121602000000000EUROBANK                            P.O. BOX 19-1009                    SAN JUAN            PR009191009787751734011     
021502794O0210012081041894000000000THE BANK OF NOVA SCOTIA             273 PONCE DE LEON AVE               HATO REY            PR009180000809766799211     
021502804O0210012081081899000000000SCOTIA BANK DE PUERTO RICO          273 PONCE DE LEON AVE               HATO REY            PR009180000787766799211     
021502914O0210012081122499000000000EUROBANK                            P.O. BOX 191009                     SAN JUAN            PR009191009787722191311     
021502930O0210012081040405000000000BANCO NACIONAL N A                  176 F.D. ROOSEVELT                  HATO REY            PR009190000809764247511     
021502943O0210012081050404000000000EUROBANK                            270 MUNOZ RIVERA AVENUE             SAN JUAN            PR009180000787722191011     
021582662O0210012081051204000000000COOPERATIVA A/C CAGUAS              P O BOX 1252                        CAGUAS              PR007261252787746959511     
021582688O0210012081021997000000000BORINQUEN SUR FEDERAL CREDIT UNION  PO BOX 225                          PENUELAS            PR006240000787836135711     
021582691O0210012081092999000000000COOP DE AHORRA Y CREDITO AIBONITENA 100 JOSE C. VAZQUEZ STREET          AIBONITO            PR007050000787735413111     
021582701O0210012081041305000000000COOP. A/C SAULO D. RODRIGUEZ        54 SAN JOSE STREET                  GURABO              PR007780000787737350111     
021582714O0210012081032202000000000COOPERATIVA A/C LA COMERIENA        CALLE GEORGETTI NUM. 64             COMERIO             PR007820000787875254011     
021582727O0210012081081501000000000COOP.SAGRADA FAMILIA SANTA JUANITA  CALLE BOU 38                        COROZAL             PR007830000787859265011     
021582730O0210012081032002000000000COOP. DE A/C CIDRENA                PO BOX 1490                         CIDRA               PR007391490787739770011     
021582743O0210012081050702000000000COOP. A/C SAN JOSE                  106 SUR CALLE DEGETAU               AIBONITO            PR007050000787735747411     
021582756O0210012081062095000000000COOPERATIVA A/C AGUAS BUENAS        PO BOX 5                            AGUAS BUENAS        PR007030000809732403611     
021582769O0210012081031902000000000COOP A/C LA SAGRADA FAMILIA         CALLE BOU 38                        COROZAL             PR007830000787859265011     
021582785O0210012081071706000000000COOPERATIVA A/C DE ISABELA          PO BOX 552                          ISABELA             PR006620000787872226511     
021582798O0210012081081001000000000COOPERATIVA A/C SAN RAFAEL          P.O. BOX 960                        QUEBRADILLAS        PR006780000787895205011     
021582808O0210012081022598000000000COOP. DE A/C FAMILIAR PROGRESISTA   AVE DE DIEGO #479                   PUERTO NUEVO        PR009200000809783876011     
021582824O0210012081072296000000000COOP. DE A/C MOROVENA               PO BOX 577                          MOROVIS             PR006870000809862744011     
021582837O0210012081042007000000000COOPERATIVA DE A Y C DE LA AAA      AVE BARBOSA 604                     HATO REY            PR009180000787751530511     
021582853O0210012081053003000000000COOP DE AHORRO Y CREDITO LAS PIEDRASBO MONTONGS I                       LAS PIEDRAS         PR007710000787733282111     
021582866O0210012081042706000000000COOP. A/C SAN MIGUEL                CALLE GEORGETTI #77                 NARANJITO           PR007190000787869218011     
021582879O0210012081050102000000000BANCO BILBAO VIZCAYA PR             #3                                  SANTA ISABEL        PR007570000787845239011     
021582918O0210012081020601000000000COOP. DE A/C DE GUAYNABO            66 CARAZO ST.                       GUAYNABO            PR009690000787720685211     
021582921O0210012081020100000000000COOPERATIVA A/C ELECTRO-COOP.       AVE. PONCE DE LEON #954             SANTURCE            PR009070000787725333311     
021582934O0210012081081899000000000COOPERATIVA A/C AGUADILLA           P.O. BOX 541                        AGUADILLA,          PR006050000787891175511     
021582947O0210012081062195000000000COOP A/C CRISTOBAL RODRIGUEZ HIDALGOPO BOX 438                          COAMO               PR007690000809825149611     
021582950O0210012081011701000000000COOP. AHORRO Y CREDITO DE FLORIDA   5 TEODORO MORALES ST.               FLORIDA             PR006500000787822263011     
021582963O0210012081030698000000000COOPERATIVA AHORRO Y CRED CUPEY ALTOR.R.6 BOX 11100                     SAN JUAN            PR009260000787760226011     
021582976O0210012081042007000000000COOP DE AHORRO Y CREDITO DE AGUADA  BO ASOMANTE                         AGUADA              PR006020000787868211511     
021582989O0210012081052797000000000COOPERATIVA DE A/C CIALES           P.O. BOX 1438                       CIALES              PR006380000787871180011     
021583001O0210012081030399000000000MERCI COOP DE PUERTO RICO           PO BOX 1294                         SAN LORENZO         PR007540000787736455311     
021583014O0210012081012501000000000COOP. A/C VALVANERA                 P.O. BOX 293                        COAMO               PR007690000787825122511     
021583027O0210012081042298000000000COOP AHORRO Y CREDITO VEGA ALTA     PO BOX 1078                         VEGA ALTA           PR006920000787883441211     
021583030O0210012081041504000000000COOPERATIVA DE A/C JESUS OBRERO     CARRELERA #1 KM 23.6                BARRIO RIO, GUAYNABOPR009710000787720620911     
021583043O0210012081100599000000000COOP. A/C TRIB GEN DE JUSTICIA      P.O. BOX 190887                     SAN JUAN            PR009190887787766140011     
021583056O0210012081052303000000000COOP DE A/C CIALES                  P.O. BOX 1438                       CIALES              PR006380000787722202711     
021583069O0210012081082898000000000COOPERATIVA DE A/C CIVICO PONCENA   APARTADO 186 ATOCHA STATION         PONCE               PR007330000787843648511     
021583098O0210012081012706000000000COOP. AHORRO Y CREDITO ADJUNTAS     8 PRIMO DELAGO STREET               ADJUNTAS            PR006010000787829329011     
021583108O0210012081052303000000000COOP A/C NUESTRA SRA DELA CANDELARIACALLE BALDORIOTY NUM. 20            MANATI              PR006740000787854162011     
021583111O0210012081041504000000000COOP A/C SAN BLAS ILLESCAS          60 JOSE I. QUINTON STREET           COAMO               PR007690000787825117511     
021583137O0210012081012398000000000COOP. A/C DE ANASCO                 P.O. BOX 489                        ANASCO,             PR006100000787826265511     
021583140O0210012081041207000000000COOP DE AHORRO Y CREDITO NAGUABENA  B1 CALLE 3                          NAGUABO             PR007180000787874218511     
021583153O0210012081040501000000000COOP. DE A/C HORMIGUEROS            MATEO FAJARDO #11                   HORMIGUEROS,        PR006600000787849224011     
021583179O0210012081041607000000000COOP. A/C HOGAR CRISTIANO DE CIALES P.O. BOX 1438                       CIALES              PR006380000787871180011     
021583195O0210012081052504000000000COOP. DE A/C ABRAHAM ROSA           HC-01 BOX 9087                      TOA BAJA            PR009499715787622305511     
021583218O0210012081100599000000000COOPERATIVA A/C LARES REGION CENTRALPO BOX 362                          LARES               PR006690000809897274011     
021583247O0210012081012401000000000COOPERATIVA DE A/C SABANENA         AVE. QUILICHINI #22                 SABANA GRANDE       PR006370000809873530011     
021583276O0210012081090399000000000COOPERATIVA DE A/C CARIBE COOP      P.O. BOX 560464                     GUAYANILLA          PR006560464787835248011     
021583302O0210012081090600000000000COOP.A/C DE LA CASA DEL TRABAJADOR  EDIF. PRUDENCIO RIVERA MARTINEZ     SAN JUAN            PR009180000787765592511     
